8=FIX.4.2|9=76|35=A|49=SERVER|56=CLIENT|34=1|52=20220101-10:00:00|98=0|108=30|141=Y|10=108|
8=FIX.4.2|9=76|35=A|49=CLIENT|56=SERVER|34=1|52=20220101-10:00:01|98=0|108=30|141=Y|10=109|
8=FIX.4.2|9=123|35=D|49=CLIENT|56=SERVER|34=2|52=20220101-10:01:00|11=order1|21=1|55=AAPL|54=1|60=20220101-10:01:00|38=100|40=2|44=150.50|10=223|
8=FIX.4.2|9=123|35=D|49=CLIENT|56=SERVER|34=3|52=20220101-10:01:30|11=order2|21=1|55=MSFT|54=1|60=20220101-10:01:30|38=200|40=2|44=250.75|10=224|
8=FIX.4.2|9=123|35=D|49=CLIENT|56=SERVER|34=4|52=20220101-10:02:00|11=order3|21=1|55=GOOG|54=2|60=20220101-10:02:00|38=150|40=2|44=210.25|10=225|
8=FIX.4.2|9=76|35=A|49=SERVER|56=CLIENT|34=1|52=20220101-10:00:00|98=0|108=30|141=Y|10=108|
8=FIX.4.2|9=76|35=A|49=CLIENT|56=SERVER|34=1|52=20220101-10:00:01|98=0|108=30|141=Y|10=109|
8=FIX.4.2|9=123|35=D|49=CLIENT|56=SERVER|34=2|52=20220101-10:01:00|11=order1|21=1|55=AAPL|54=1|60=20220101-10:01:00|38=100|40=2|44=150.50|10=223|
8=FIX.4.2|9=123|35=D|49=CLIENT|56=SERVER|34=3|52=20220101-10:01:30|11=order2|21=1|55=MSFT|54=1|60=20220101-10:01:30|38=200|40=2|44=250.75|10=224|
8=FIX.4.2|9=123|35=D|49=CLIENT|56=SERVER|34=4|52=20220101-10:02:00|11=order3|21=1|55=GOOG|54=2|60=20220101-10:02:00|38=150|40=2|44=210.25|10=225|
8=FIX.4.2|9=76|35=A|49=SERVER|56=CLIENT|34=1|52=20220101-10:00:00|98=0|108=30|141=Y|10=108|
8=FIX.4.2|9=76|35=A|49=CLIENT|56=SERVER|34=1|52=20220101-10:00:01|98=0|108=30|141=Y|10=109|
8=FIX.4.2|9=123|35=D|49=CLIENT|56=SERVER|34=2|52=20220101-10:01:00|11=order1|21=1|55=AAPL|54=1|60=20220101-10:01:00|38=100|40=2|44=150.50|10=223|
8=FIX.4.2|9=123|35=D|49=CLIENT|56=SERVER|34=3|52=20220101-10:01:30|11=order2|21=1|55=MSFT|54=1|60=20220101-10:01:30|38=200|40=2|44=250.75|10=224|
8=FIX.4.2|9=123|35=D|49=CLIENT|56=SERVER|34=4|52=20220101-10:02:00|11=order3|21=1|55=GOOG|54=2|60=20220101-10:02:00|38=150|40=2|44=210.25|10=225|
8=FIX.4.2|9=76|35=A|49=SERVER|56=CLIENT|34=1|52=20220101-10:00:00|98=0|108=30|141=Y|10=108|
8=FIX.4.2|9=76|35=A|49=CLIENT|56=SERVER|34=1|52=20220101-10:00:01|98=0|108=30|141=Y|10=109|
8=FIX.4.2|9=123|35=D|49=CLIENT|56=SERVER|34=2|52=20220101-10:01:00|11=order1|21=1|55=AAPL|54=1|60=20220101-10:01:00|38=100|40=2|44=150.50|10=223|
8=FIX.4.2|9=123|35=D|49=CLIENT|56=SERVER|34=3|52=20220101-10:01:30|11=order2|21=1|55=MSFT|54=1|60=20220101-10:01:30|38=200|40=2|44=250.75|10=224|
8=FIX.4.2|9=123|35=D|49=CLIENT|56=SERVER|34=4|52=20220101-10:02:00|11=order3|21=1|55=GOOG|54=2|60=20220101-10:02:00|38=150|40=2|44=210.25|10=225|
8=FIX.4.2|9=76|35=A|49=SERVER|56=CLIENT|34=1|52=20220101-10:00:00|98=0|108=30|141=Y|10=108|
8=FIX.4.2|9=76|35=A|49=CLIENT|56=SERVER|34=1|52=20220101-10:00:01|98=0|108=30|141=Y|10=109|
8=FIX.4.2|9=123|35=D|49=CLIENT|56=SERVER|34=2|52=20220101-10:01:00|11=order1|21=1|55=AAPL|54=1|60=20220101-10:01:00|38=100|40=2|44=150.50|10=223|
8=FIX.4.2|9=123|35=D|49=CLIENT|56=SERVER|34=3|52=20220101-10:01:30|11=order2|21=1|55=MSFT|54=1|60=20220101-10:01:30|38=200|40=2|44=250.75|10=224|
8=FIX.4.2|9=123|35=D|49=CLIENT|56=SERVER|34=4|52=20220101-10:02:00|11=order3|21=1|55=GOOG|54=2|60=20220101-10:02:00|38=150|40=2|44=210.25|10=225|
8=FIX.4.2|9=76|35=A|49=SERVER|56=CLIENT|34=1|52=20220101-10:00:00|98=0|108=30|141=Y|10=108|
8=FIX.4.2|9=76|35=A|49=CLIENT|56=SERVER|34=1|52=20220101-10:00:01|98=0|108=30|141=Y|10=109|
8=FIX.4.2|9=123|35=D|49=CLIENT|56=SERVER|34=2|52=20220101-10:01:00|11=order1|21=1|55=AAPL|54=1|60=20220101-10:01:00|38=100|40=2|44=150.50|10=223|
8=FIX.4.2|9=123|35=D|49=CLIENT|56=SERVER|34=3|52=20220101-10:01:30|11=order2|21=1|55=MSFT|54=1|60=20220101-10:01:30|38=200|40=2|44=250.75|10=224|
8=FIX.4.2|9=123|35=D|49=CLIENT|56=SERVER|34=4|52=20220101-10:02:00|11=order3|21=1|55=GOOG|54=2|60=20220101-10:02:00|38=150|40=2|44=210.25|10=225|
8=FIX.4.2|9=76|35=A|49=SERVER|56=CLIENT|34=1|52=20220101-10:00:00|98=0|108=30|141=Y|10=108|
8=FIX.4.2|9=76|35=A|49=CLIENT|56=SERVER|34=1|52=20220101-10:00:01|98=0|108=30|141=Y|10=109|
8=FIX.4.2|9=123|35=D|49=CLIENT|56=SERVER|34=2|52=20220101-10:01:00|11=order1|21=1|55=AAPL|54=1|60=20220101-10:01:00|38=100|40=2|44=150.50|10=223|
8=FIX.4.2|9=123|35=D|49=CLIENT|56=SERVER|34=3|52=20220101-10:01:30|11=order2|21=1|55=MSFT|54=1|60=20220101-10:01:30|38=200|40=2|44=250.75|10=224|
8=FIX.4.2|9=123|35=D|49=CLIENT|56=SERVER|34=4|52=20220101-10:02:00|11=order3|21=1|55=GOOG|54=2|60=20220101-10:02:00|38=150|40=2|44=210.25|10=225|
8=FIX.4.2|9=76|35=A|49=SERVER|56=CLIENT|34=1|52=20220101-10:00:00|98=0|108=30|141=Y|10=108|
8=FIX.4.2|9=76|35=A|49=CLIENT|56=SERVER|34=1|52=20220101-10:00:01|98=0|108=30|141=Y|10=109|
8=FIX.4.2|9=123|35=D|49=CLIENT|56=SERVER|34=2|52=20220101-10:01:00|11=order1|21=1|55=AAPL|54=1|60=20220101-10:01:00|38=100|40=2|44=150.50|10=223|
8=FIX.4.2|9=123|35=D|49=CLIENT|56=SERVER|34=3|52=20220101-10:01:30|11=order2|21=1|55=MSFT|54=1|60=20220101-10:01:30|38=200|40=2|44=250.75|10=224|
8=FIX.4.2|9=123|35=D|49=CLIENT|56=SERVER|34=4|52=20220101-10:02:00|11=order3|21=1|55=GOOG|54=2|60=20220101-10:02:00|38=150|40=2|44=210.25|10=225|
8=FIX.4.2|9=76|35=A|49=SERVER|56=CLIENT|34=1|52=20220101-10:00:00|98=0|108=30|141=Y|10=108|
8=FIX.4.2|9=76|35=A|49=CLIENT|56=SERVER|34=1|52=20220101-10:00:01|98=0|108=30|141=Y|10=109|
8=FIX.4.2|9=123|35=D|49=CLIENT|56=SERVER|34=2|52=20220101-10:01:00|11=order1|21=1|55=AAPL|54=1|60=20220101-10:01:00|38=100|40=2|44=150.50|10=223|
8=FIX.4.2|9=123|35=D|49=CLIENT|56=SERVER|34=3|52=20220101-10:01:30|11=order2|21=1|55=MSFT|54=1|60=20220101-10:01:30|38=200|40=2|44=250.75|10=224|
8=FIX.4.2|9=123|35=D|49=CLIENT|56=SERVER|34=4|52=20220101-10:02:00|11=order3|21=1|55=GOOG|54=2|60=20220101-10:02:00|38=150|40=2|44=210.25|10=225|
8=FIX.4.2|9=76|35=A|49=SERVER|56=CLIENT|34=1|52=20220101-10:00:00|98=0|108=30|141=Y|10=108|
8=FIX.4.2|9=76|35=A|49=CLIENT|56=SERVER|34=1|52=20220101-10:00:01|98=0|108=30|141=Y|10=109|
8=FIX.4.2|9=123|35=D|49=CLIENT|56=SERVER|34=2|52=20220101-10:01:00|11=order1|21=1|55=AAPL|54=1|60=20220101-10:01:00|38=100|40=2|44=150.50|10=223|
8=FIX.4.2|9=123|35=D|49=CLIENT|56=SERVER|34=3|52=20220101-10:01:30|11=order2|21=1|55=MSFT|54=1|60=20220101-10:01:30|38=200|40=2|44=250.75|10=224|
8=FIX.4.2|9=123|35=D|49=CLIENT|56=SERVER|34=4|52=20220101-10:02:00|11=order3|21=1|55=GOOG|54=2|60=20220101-10:02:00|38=150|40=2|44=210.25|10=225|
8=FIX.4.2|9=76|35=A|49=SERVER|56=CLIENT|34=1|52=20220101-10:00:00|98=0|108=30|141=Y|10=108|
8=FIX.4.2|9=76|35=A|49=CLIENT|56=SERVER|34=1|52=20220101-10:00:01|98=0|108=30|141=Y|10=109|
8=FIX.4.2|9=123|35=D|49=CLIENT|56=SERVER|34=2|52=20220101-10:01:00|11=order1|21=1|55=AAPL|54=1|60=20220101-10:01:00|38=100|40=2|44=150.50|10=223|
8=FIX.4.2|9=123|35=D|49=CLIENT|56=SERVER|34=3|52=20220101-10:01:30|11=order2|21=1|55=MSFT|54=1|60=20220101-10:01:30|38=200|40=2|44=250.75|10=224|
8=FIX.4.2|9=123|35=D|49=CLIENT|56=SERVER|34=4|52=20220101-10:02:00|11=order3|21=1|55=GOOG|54=2|60=20220101-10:02:00|38=150|40=2|44=210.25|10=225|
8=FIX.4.2|9=76|35=A|49=SERVER|56=CLIENT|34=1|52=20220101-10:00:00|98=0|108=30|141=Y|10=108|
8=FIX.4.2|9=76|35=A|49=CLIENT|56=SERVER|34=1|52=20220101-10:00:01|98=0|108=30|141=Y|10=109|
8=FIX.4.2|9=123|35=D|49=CLIENT|56=SERVER|34=2|52=20220101-10:01:00|11=order1|21=1|55=AAPL|54=1|60=20220101-10:01:00|38=100|40=2|44=150.50|10=223|
8=FIX.4.2|9=123|35=D|49=CLIENT|56=SERVER|34=3|52=20220101-10:01:30|11=order2|21=1|55=MSFT|54=1|60=20220101-10:01:30|38=200|40=2|44=250.75|10=224|
8=FIX.4.2|9=123|35=D|49=CLIENT|56=SERVER|34=4|52=20220101-10:02:00|11=order3|21=1|55=GOOG|54=2|60=20220101-10:02:00|38=150|40=2|44=210.25|10=225|
8=FIX.4.2|9=76|35=A|49=SERVER|56=CLIENT|34=1|52=20220101-10:00:00|98=0|108=30|141=Y|10=108|
8=FIX.4.2|9=76|35=A|49=CLIENT|56=SERVER|34=1|52=20220101-10:00:01|98=0|108=30|141=Y|10=109|
8=FIX.4.2|9=123|35=D|49=CLIENT|56=SERVER|34=2|52=20220101-10:01:00|11=order1|21=1|55=AAPL|54=1|60=20220101-10:01:00|38=100|40=2|44=150.50|10=223|
8=FIX.4.2|9=123|35=D|49=CLIENT|56=SERVER|34=3|52=20220101-10:01:30|11=order2|21=1|55=MSFT|54=1|60=20220101-10:01:30|38=200|40=2|44=250.75|10=224|
8=FIX.4.2|9=123|35=D|49=CLIENT|56=SERVER|34=4|52=20220101-10:02:00|11=order3|21=1|55=GOOG|54=2|60=20220101-10:02:00|38=150|40=2|44=210.25|10=225|
8=FIX.4.2|9=76|35=A|49=SERVER|56=CLIENT|34=1|52=20220101-10:00:00|98=0|108=30|141=Y|10=108|
8=FIX.4.2|9=76|35=A|49=CLIENT|56=SERVER|34=1|52=20220101-10:00:01|98=0|108=30|141=Y|10=109|
8=FIX.4.2|9=123|35=D|49=CLIENT|56=SERVER|34=2|52=20220101-10:01:00|11=order1|21=1|55=AAPL|54=1|60=20220101-10:01:00|38=100|40=2|44=150.50|10=223|
8=FIX.4.2|9=123|35=D|49=CLIENT|56=SERVER|34=3|52=20220101-10:01:30|11=order2|21=1|55=MSFT|54=1|60=20220101-10:01:30|38=200|40=2|44=250.75|10=224|
8=FIX.4.2|9=123|35=D|49=CLIENT|56=SERVER|34=4|52=20220101-10:02:00|11=order3|21=1|55=GOOG|54=2|60=20220101-10:02:00|38=150|40=2|44=210.25|10=225|
8=FIX.4.2|9=76|35=A|49=SERVER|56=CLIENT|34=1|52=20220101-10:00:00|98=0|108=30|141=Y|10=108|
8=FIX.4.2|9=76|35=A|49=CLIENT|56=SERVER|34=1|52=20220101-10:00:01|98=0|108=30|141=Y|10=109|
8=FIX.4.2|9=123|35=D|49=CLIENT|56=SERVER|34=2|52=20220101-10:01:00|11=order1|21=1|55=AAPL|54=1|60=20220101-10:01:00|38=100|40=2|44=150.50|10=223|
8=FIX.4.2|9=123|35=D|49=CLIENT|56=SERVER|34=3|52=20220101-10:01:30|11=order2|21=1|55=MSFT|54=1|60=20220101-10:01:30|38=200|40=2|44=250.75|10=224|
8=FIX.4.2|9=123|35=D|49=CLIENT|56=SERVER|34=4|52=20220101-10:02:00|11=order3|21=1|55=GOOG|54=2|60=20220101-10:02:00|38=150|40=2|44=210.25|10=225|
8=FIX.4.2|9=76|35=A|49=SERVER|56=CLIENT|34=1|52=20220101-10:00:00|98=0|108=30|141=Y|10=108|
8=FIX.4.2|9=76|35=A|49=CLIENT|56=SERVER|34=1|52=20220101-10:00:01|98=0|108=30|141=Y|10=109|
8=FIX.4.2|9=123|35=D|49=CLIENT|56=SERVER|34=2|52=20220101-10:01:00|11=order1|21=1|55=AAPL|54=1|60=20220101-10:01:00|38=100|40=2|44=150.50|10=223|
8=FIX.4.2|9=123|35=D|49=CLIENT|56=SERVER|34=3|52=20220101-10:01:30|11=order2|21=1|55=MSFT|54=1|60=20220101-10:01:30|38=200|40=2|44=250.75|10=224|
8=FIX.4.2|9=123|35=D|49=CLIENT|56=SERVER|34=4|52=20220101-10:02:00|11=order3|21=1|55=GOOG|54=2|60=20220101-10:02:00|38=150|40=2|44=210.25|10=225|
8=FIX.4.2|9=76|35=A|49=SERVER|56=CLIENT|34=1|52=20220101-10:00:00|98=0|108=30|141=Y|10=108|
8=FIX.4.2|9=76|35=A|49=CLIENT|56=SERVER|34=1|52=20220101-10:00:01|98=0|108=30|141=Y|10=109|
8=FIX.4.2|9=123|35=D|49=CLIENT|56=SERVER|34=2|52=20220101-10:01:00|11=order1|21=1|55=AAPL|54=1|60=20220101-10:01:00|38=100|40=2|44=150.50|10=223|
8=FIX.4.2|9=123|35=D|49=CLIENT|56=SERVER|34=3|52=20220101-10:01:30|11=order2|21=1|55=MSFT|54=1|60=20220101-10:01:30|38=200|40=2|44=250.75|10=224|
8=FIX.4.2|9=123|35=D|49=CLIENT|56=SERVER|34=4|52=20220101-10:02:00|11=order3|21=1|55=GOOG|54=2|60=20220101-10:02:00|38=150|40=2|44=210.25|10=225|
8=FIX.4.2|9=76|35=A|49=SERVER|56=CLIENT|34=1|52=20220101-10:00:00|98=0|108=30|141=Y|10=108|
8=FIX.4.2|9=76|35=A|49=CLIENT|56=SERVER|34=1|52=20220101-10:00:01|98=0|108=30|141=Y|10=109|
8=FIX.4.2|9=123|35=D|49=CLIENT|56=SERVER|34=2|52=20220101-10:01:00|11=order1|21=1|55=AAPL|54=1|60=20220101-10:01:00|38=100|40=2|44=150.50|10=223|
8=FIX.4.2|9=123|35=D|49=CLIENT|56=SERVER|34=3|52=20220101-10:01:30|11=order2|21=1|55=MSFT|54=1|60=20220101-10:01:30|38=200|40=2|44=250.75|10=224|
8=FIX.4.2|9=123|35=D|49=CLIENT|56=SERVER|34=4|52=20220101-10:02:00|11=order3|21=1|55=GOOG|54=2|60=20220101-10:02:00|38=150|40=2|44=210.25|10=225|
8=FIX.4.2|9=76|35=A|49=SERVER|56=CLIENT|34=1|52=20220101-10:00:00|98=0|108=30|141=Y|10=108|
8=FIX.4.2|9=76|35=A|49=CLIENT|56=SERVER|34=1|52=20220101-10:00:01|98=0|108=30|141=Y|10=109|
8=FIX.4.2|9=123|35=D|49=CLIENT|56=SERVER|34=2|52=20220101-10:01:00|11=order1|21=1|55=AAPL|54=1|60=20220101-10:01:00|38=100|40=2|44=150.50|10=223|
8=FIX.4.2|9=123|35=D|49=CLIENT|56=SERVER|34=3|52=20220101-10:01:30|11=order2|21=1|55=MSFT|54=1|60=20220101-10:01:30|38=200|40=2|44=250.75|10=224|
8=FIX.4.2|9=123|35=D|49=CLIENT|56=SERVER|34=4|52=20220101-10:02:00|11=order3|21=1|55=GOOG|54=2|60=20220101-10:02:00|38=150|40=2|44=210.25|10=225|
8=FIX.4.2|9=76|35=A|49=SERVER|56=CLIENT|34=1|52=20220101-10:00:00|98=0|108=30|141=Y|10=108|
8=FIX.4.2|9=76|35=A|49=CLIENT|56=SERVER|34=1|52=20220101-10:00:01|98=0|108=30|141=Y|10=109|
8=FIX.4.2|9=123|35=D|49=CLIENT|56=SERVER|34=2|52=20220101-10:01:00|11=order1|21=1|55=AAPL|54=1|60=20220101-10:01:00|38=100|40=2|44=150.50|10=223|
8=FIX.4.2|9=123|35=D|49=CLIENT|56=SERVER|34=3|52=20220101-10:01:30|11=order2|21=1|55=MSFT|54=1|60=20220101-10:01:30|38=200|40=2|44=250.75|10=224|
8=FIX.4.2|9=123|35=D|49=CLIENT|56=SERVER|34=4|52=20220101-10:02:00|11=order3|21=1|55=GOOG|54=2|60=20220101-10:02:00|38=150|40=2|44=210.25|10=225|